:1008000000008431412CFF3F7E1484312000911E72
:100810000D2C9C31942484313F2C901E142C90126A
:100820009D31082584313F2C911C3F2C9110C80A22
:1008300048080339031949183F2CC9193F2C2400D3
:10084000201C262C20004A0803193F2C0C302400C1
:100850002206031D2F2C9231EF2284313F2C2000E1
:100860004A080319372C8431432484313F2C240057
:10087000220803193D2C21183F2C923184227E102E
:1008800009008C310D2C491A080023003E08410252
:10089000031D4C2C3D0840020318522CC00A0319BA
:1008A000C10AAF2CC001C101A12C2300BF0A0B302B
:1008B0003F02031C5D2C0130BF0042258431AF2C68
:1008C0002300BF0A4B303F020318BF019B25843130
:1008D000AF2C2300BF0A11303F020318BF01903133
:1008E000AF208431AF2C2300BF0A05303F0203182C
:1008F000BF0172268431AF2CBF01230020081B27C3
:10090000843103199A2C0130B9003F0A882CB9357B
:10091000890B872C2300200E0F392000BA003908DC
:10092000BA06BA0E2300200820003A060F393A060C
:100930002300A00020000430BF0A3F020318AF2CA0
:100940007D2C20004A08FF3E031CAF2C84000B3096
:1009500004020318AF2C983104354F3E820020006A
:10096000BF01230020081B2784310319E52CCD2764
:100970008431E1268431A42784313F083F073F07B3
:100980005627933151238431B3278431ED248431A8
:100990002D08BE002C08BD002300200E1B2784312B
:1009A0000319DB2C3F35A13E942784313907BB0066
:1009B0003E083A3DE32C3F35A93E94278431390265
:1009C000BB003E083A3B802784310430BF0A3F0217
:1009D000031CB12C9331EC230800AC2784310310A5
:1009E000310D320DB8003808031DFB2CAC01AD01F0
:1009F000AE01AF010800AC2784311730B236B10C1C
:100A0000B00C890BFE2C3008B300AD17AE012C08DA
:100A1000B4002D08B5002E08B6008E30B701B8021C
:100A2000B81F1E2D3808803A8F3E031CF62CB736AF
:100A3000B60CB50CB40CB80F172D2B2D183038028E
:100A40000318F62C380803192B2DB435B50DB60D47
:100A5000B70DB803222D33080319392DB409B50990
:100A6000B609B709B40A0319B50A0319B60A031976
:100A7000B70A3708AF003608AE003508AD003408B5
:100A8000AC000800F030A005FA302000DA00DB01ED
:100A90008F2DF22684319D27BD000800F226843177
:100AA000C830DC00DD012330D32FF2268431013041
:100AB000DD002C30DC001E30D32F013020006C27ED
:100AC0008431F4305A2DF2268431FA30DC00DD0115
:100AD0005B2DF2268431DC01DD01FA30D32FF226C2
:100AE0008431D7278431532D013020006C27843185
:100AF0009030DC001430D32FF2268431FA30832D6D
:100B0000F2268431C830DC00DD017A2DF226DC01CA
:100B1000DD0109302300BE00C430BD000800230001
:100B20003F0884000B300402031808009831043594
:100B3000653E82000800F2268431642E51278431FC
:100B40002F2784313330B700B330B8003F30B900BD
:100B5000BA019030BB003F30BC005030532E4827C4
:100B60008431D430A500A601F030AD00AE012000E4
:100B7000DC01DD014027843114303A2E48278431CE
:100B8000F030A500A6010130AE002830AD001030D5
:100B90002000DC00DD01402784312830532E482717
:100BA00084310130A6002830A5000130AE00EC30C1
:100BB000AD002000DC01DD01402784318C30532E54
:100BC000F030A00501302000DB00EC30DA00FA3014
:100BD000DC00DD010A303A2EF030A005C8302000DC
:100BE000DA00DB016430E82DF030A005643020002D
:100BF000DA00DB01DC01E92DF030A0053230200005
:100C0000DA00DB014C30DC00DD01BC2DF030A0054A
:100C10002000DA01F92D8A2784310130AE002C3012
:100C2000AD00A701A8016430AF00B001B7012030CA
:100C3000B8004030B900BA01A030AA2DF030A005AC
:100C40000130BE00F430612EF030A0050530BE004A
:100C5000DC30612EF030A0050A30BE00BE30612EBF
:100C6000F030A005B4302000DA00DB019630DC0063
:100C7000DD011E302300532E062E8A278431B43026
:100C8000AD00AE01A701A8019630AF00B001CD3094
:100C9000B7004C30B8003F30B900BA01C030BB00DB
:100CA0003F30BC006430BD00BE016F2EF030A005A7
:100CB0000230BE005830612EF030A0050330BE0077
:100CC000E830BD006F2E1E2E23003F0884004B30FD
:100CD000040203186F2E90310435003E82009231D9
:100CE00058220800D02EF8268431CC2E2008F03966
:100CF0000338A00020080F393038C7278431612716
:100D000084310330200028278431CD302300B10006
:100D10004C3076278431DA2E0F30A00420080F39AA
:100D20008038A000A101A2016127843114278431F9
:100D3000BA2784313330B100B33076278431AD2EF9
:100D40005127843120080F394038A00014278431FE
:100D5000BA278431F22684312300C12784318030C0
:100D6000BB003D30BC00DA2E2008F0390138A0006D
:100D700020080F391038A000A101A2010230AA00FA
:100D8000BC30A9002000D801D901033028278431C4
:100D900033302300B100B330B2003E30B300DA2E5E
:100DA0003F088400053004020318DA2E9831043518
:100DB0007B3E82000730BE00D030BD009231582209
:100DC00008007808F0007908F1008E30F201F30095
:100DD000F4019331AE237008F8007108F90072082D
:100DE000FA0008002000D601D701D801D901080077
:100DF0002008F0390138A0000F30A0050130A20012
:100E00002C30A1000230AA00BC30A9002000D8017B
:100E1000D9010330DB00E830DA006430DC00DD01AA
:100E2000CD302300B1004C34A501A6010330AE0043
:100E3000E830AD0008000F392000B9000130BA00D9
:100E40003F0A232FBA35890B222F3A0839050800AB
:100E5000DB00E830DA006430DC00DD010800200847
:100E60000F394038A0006430A500A601D430AD0091
:100E7000AE010A30A700A8016430AF00B00108003D
:100E800033302300B700B330B8003F30B90008005A
:100E90002008F0390438A00020080F394038A0009D
:100EA00008002008F0390C38A0000800B13E860088
:100EB00001308700403FA000413FA100423FA20017
:100EC00008000230AA00BC30A900A301A40102302E
:100ED000AC00BC30AB000800D700C230D6000130F7
:100EE000D900C230D8000130DD000800B2003E3029
:100EF000B3003330B400B330B5003E30B600080064
:100F0000BC003F35563E860087013B08C03F3C0889
:100F1000C13F08002008F0390C38A0000F30A005B0
:100F20006430A500A6010800860001308700403F1C
:100F3000B900413FBA003D080800C830DC00DD01BF
:100F400001302300BE00F43478082000A3007908A3
:100F5000A4007A08A50008002C08B0002D08B100F4
:100F60002E08B20008002008AC002108AD002208BD
:100F7000AE0008006430A700A801E130AF00B00166
:100F80000800B701B8013F30B900BA010800A0005D
:100F90000130A2002C30A100080023004108F90014
:100FA0004008F80008002300BD00BE010800013021
:100FB000DD002C30DC0008009031B0289031C528CD
:100FC0009031B0289031C5289031CB289031D72866
:100FD0009031F428913109299131202991314D29FD
:100FE000913154299131622991316D2991319129A1
:100FF00091319D299131AD299131CD29FF3FFF3F9D
:101000008F31082F8F31462F8C31AC2C8C31DE2C58
:101010008D31122D8D314F2D8D31642D8D31982DC7
:101020008D31B62D8E31042E8E31442E8E31772E99
:101030008E31B22E8E31C32E8E31D02E8E31F82EBF
:10104000333430343334313433343434333434346B
:101050003334303433343134333430343334323461
:1010600000341F341C341F341E341F341E341F340C
:101070001F341E341F341E341F341030E7208831D3
:10108000A9308600003087002030840002308500BF
:101090003130DB0016001A00DB0B4A280130240037
:1010A000A0050130A1052100DF015F35233E860048
:1010B00002308700403FDB00413FDC0003305C0230
:1010C000E93003195B02031C7028E830DB000330B1
:1010D000DC005F35233E86005B08C03F5C08C13FF3
:1010E000DE012B2188310230870065300102031CAC
:1010F0007D282B218831643081000430DE0A5E02B5
:10110000031C71285F083F3E372188315F08031CAC
:101110008E283F3E8600643081005F08473E3721BD
:101120008831031C98285F08473E860064308100A0
:101130000430DF0A5F02031C5528183024003B02EC
:101140000318BB013C303C020318BC0118303D02BF
:101150000318BD013C303E020318BE0118304302A3
:101160000318C3013C3044020318C401183045027F
:101170000318C5013C3046020318C60118304C0262
:101180000318CC013C304D020318CD0118304E023B
:101190000318CE013C304F020318CF010C3050022F
:1011A000031CD428D001CB010C3022020318A20169
:1011B00020180800211CE5282208031DE1288F3192
:1011C000672F22082000CA003D298F315B2FA00025
:1011D00021302100A4003130A50022002008002188
:1011E00088312130860001308700A930840000302A
:1011F00085003130DA0016001A00DA0BFB280800EF
:101200002100A700A80125082802031808002808C3
:101210002407A6008600013087002708280714212C
:1012200088318100A80A0329A200A0007030A10122
:10123000A1071D212100A300080021083100920010
:10124000210020083100910015171514000000003E
:101250003100130808005E08DB002B30DB35DB357E
:101260005B07DC005F085C07DD0086000800860085
:10127000023087006530010208002300BF01C00171
:10128000C10120004912DE2AF0302300A00586317A
:10129000F2268831FA30DA00DB0187319D27883168
:1012A0008929230087315127883187312F278831B9
:1012B0008631F2268831873140278831BA01903053
:1012C000BB003F30BC005030BD00BE01EB2A0F30E8
:1012D00023009231312288319131F82188319231C5
:1012E0002C22883192311A2288319A30BA009930F2
:1012F000BB003E30BC000330BE00E830892923002B
:101300008631F8268831B2003E30B3000730BE0087
:10131000D030BD00EB2A230092314B228831903827
:10132000A00092310C228831873114278831BA23EA
:101330008831FA302000D800D901F7238831B82944
:1013400023002008F0390E3892314522883192313D
:1013500013228831873114278831BA23883120003D
:10136000D601D7012300B4018030B5003E30B6006D
:10137000B701B8013F30B900F2292300923136227B
:10138000883110389131F821883103302000DD0098
:10139000E830DC00F7238831B1018030B2003E3004
:1013A000B300B101B2013F30852923002008F03994
:1013B0000938A0000F30A0050130A2009030A10034
:1013C0000230AA008030A900BA2388312000D80159
:1013D000D901DA01DB01C3302300B100F530B200DE
:1013E0003D30B300BA018030BB003E30BC008629DE
:1013F0002300DB2388310130A6002C30A500C32355
:101400008631F2268831DC01DD0133302300B7005C
:10141000B3302F2A2300DB236430A500A60101305E
:10142000AE009030AD008631F2268831DC01DD015E
:101430009A302300B70019302F2A2300DB2388318C
:101440000130A6009030A500C3238631F2268831F2
:101450006430DC00DD019A302300B7009930B80019
:101460003E30B90086292400211C3F2A200056085E
:101470005704031D482A58085904031D482A200010
:101480005A085B04031D482A5C085D0403199B2A63
:101490002100BD012400211021003D35E9238831C0
:1014A0003D35A13EE22388313D35563E8600870119
:1014B0001600010403198B2A3D35563E860087012C
:1014C0003D35A93E840001308500403F803F413FCB
:1014D000813F3830AB000630AC003830AD003D35D0
:1014E000563E8600403FA800413FA900482388316E
:1014F0002808AE002908AF002A08B000EC22883185
:1015000003248831013087002B08C03F2C08C13FDD
:101510002D08C23F952A3D35A93EE2238831032498
:1015200088310030C03FC13FC23F0430BD0A3D0298
:101530000318D22A4A2A2100BC0124002114E830D1
:101540002100BA000330BB003C35233E8600023048
:1015500087003A08C03F3B08C13FFD2388314E3E1B
:10156000860087013A08C03F3B08C13F3C35A13E99
:10157000E2238831FD238831A93E86003A08C03F26
:101580003B08C13F3C083C073C07B13E8600123097
:10159000C03F0330C13F3D30C23F0430BC0A3C0273
:1015A000031C9D2AF0302300A0057A30BE001230C3
:1015B000BD00200049150330CC00EB2A4A08FF3E4D
:1015C000031CEB2A84000C3004020318EB2A903130
:1015D0000435963E8200962B2B08B1002C08B200F1
:1015E0002D08B3000310320D330DB4003408031D71
:1015F000FA2A092C2E08B1002F08B2003008B300D7
:101600000310320D330DB9003908031D082B092CC6
:1016100039087B3EB4072D08B9003008B906803080
:10162000B905FF30AC17AF17AE05AF050730B001F5
:10163000B501B601B701B8002B1C202BF02388316F
:10164000AD36AC0CAB0CAE35AF0DB00DB80B1C2BE2
:101650000930B8002B1C2E2BF0238831AD36AC0C92
:10166000AB0CB736B60CB50CB80B2A2B3508A0005E
:101670003608A1003708A2003408A3003908A400E6
:1016800058232008AB002108AC002208AD00080058
:101690002808A0002908A1008E30A201A300A401FF
:1016A00058232008A8002108A9002208AA00080041
:1016B00023080319602B220821042004031D682B32
:1016C000A001A101A2010800A30AA236A10CA00C4E
:1016D000FE3022050319762B642BA30AA00A0319F6
:1016E000A10A0319A20AA236A10CA00CFF30220500
:1016F0000319832B6D2B02302302031C852BA303BC
:10170000A035A10DA20DA11F7B2B231CA113A33675
:101710002308A700A601A5012508A0042608A10406
:101720002708A2042408031DA21708002100A20113
:1017300023002008C82388310319AD2B2300200E75
:10174000C82388310319A72B2235A13EA92B2235A6
:10175000A93ED5238831B32388310430A20A22025E
:1017600003180800982B84008501403F803F413FCB
:10177000813F08000130A800F430A7000330B0001A
:10178000E830AF0008000330AE00E830AD000800DC
:101790000F392100A0000130A100220AD02BA13571
:1017A000890BCF2B21082005080086000130870017
:1017B0002235563E08002008F0390438A0000F30CA
:1017C000A00508008600013087000030C03FC13FFF
:1017D00008004E3E860000308701C03FC13F080030
:1017E0002E08B5072F08B63D3008B73D0800230086
:1017F000B101B2013F30B3000800E830BA00033055
:10180000BB003C3508003D083D073D07B13E860062
:101810000800AB01AC01AD0108008D3084009C30A4
:101820008500E13086000030870007309C31872436
:101830008C312030840088308500523086000130A1
:1018400087001D309C3187248C314030840000306B
:1018500085001E309C3181248C312100A030E801AC
:1018600084000130850022309C3181248C3120306D
:1018700084000230850031309C3181248C31A030CD
:1018800084000230850030309C3181248C3120303E
:1018900084000330850030309C3181248C317E10EF
:1018A0002000522C9D318F258C319E31E1268C31C8
:1018B0008B170B1788313D208C31EF278C3179271E
:1018C0008C317B278C31640020000C19772C22008E
:1018D0008E1C772C2100E80105302100E000263025
:1018E000890B702CE00B702C000022008E10200061
:1018F0000C1D872C22008E18872C8530890B7E2C9E
:10190000000022008E14A3248C312100E801200065
:10191000C91C632CC910491C902C7D278C319C2C30
:101920002400201C9C2C2000C91D992CF9278C31E7
:101930009C2C94316E248C312000491D632C9C31E9
:10194000AB248C31632C2000491808006830250036
:101950002006031D08003C2F2000C91908008F270E
:101960008C310430A20047278C31003A031D080057
:101970000C30240022060319A2012000CA01250010
:101980002208031DD72C24002010211CD42C22084F
:10199000031DCD2C67278C31DB2C22082000CA00C8
:1019A00089313D218C31DB2C5B278C31DB2C220BE8
:1019B000DB2C24002014B7279E31712E2400201820
:1019C00008008F278C310430A20047278C31003A61
:1019D000031D08000C3024002206031DF22CA20176
:1019E0002000CA0125002208031DFD2C240021101F
:1019F0002000CA015B278C310F2D220B0F2D2400F4
:101A000021142208031D092D2000CA0167278C31EB
:101A10000F2D22082000CA0089313D218C31B727C3
:101A20009E31712E2400211820180800A2018F2752
:101A30008C310B30A20047278C31003A031D08007F
:101A4000CF014F35A33E8600023087004F35AB27CC
:101A50008C31C9000108C80003304902E93003197C
:101A600048020318422D4F35233E86004808C03FE8
:101A70004908C13F4F354E3E860087014808C03FA8
:101A80004908C13F0430CF0A4F02031C212D20001A
:101A9000CA014912C91249150330CC0008002108B7
:101AA0002206031D552D0130562D00302100BE00A9
:101AB000BF01250020062100C0003F08C1004008EA
:101AC000410403190800DC2C04302202031808002A
:101AD0008F278C310430A20047278C31003A031D38
:101AE0000800250022082100C300CB014308BE00E6
:101AF0002B30BE35BE353E07BF004B083F07C00048
:101B00008600023087000A30A000A1014B35563E06
:101B100084008501003FA200013FA300CA278C3149
:101B2000200881000430CB0A4B02031C762DDB2CED
:101B30002000C91908008F278C311930A2004727CF
:101B40008C31003A031D08001630C400CA01440855
:101B50004A020318DB2C4A083B3E8600023087000D
:101B60004A08AB278C318100CA0AA72D2400211C0A
:101B700008008F278C310530A20047278C31003AAE
:101B8000031D080004302500220203180800220863
:101B90002100CD004D35233EA0278C313E07C000EB
:101BA0003F0803183F0AC10003304102E83003191F
:101BB00040020318F02D4D35233E860025002308F2
:101BC000810741310318810A21004D35233E8600EB
:101BD000023087004D354E3E8B31B3238C31402E81
:101BE000BE278C31233E8600023087003E08C03F6E
:101BF0003F08C13FBE278C314E3E860087013E081C
:101C0000C03F3F08C13F402E2400211C08008F2701
:101C10008C310530A20047278C31003A031D0800A3
:101C20000430250022020318080022082100CE00FB
:101C30004E35233EA0278C31C000C1013F08410230
:101C4000031D242E3E0840020318342EB1278C3188
:101C500025002308C4278C312100B1274E354E3E84
:101C60008B31B3238C31402E4E35233E860002301B
:101C700087000030C03FC13F4E358B31E9238C31A6
:101C800020004912C9164B2D8F278C310430A20039
:101C900047278C31003A031D08000C30250022062E
:101CA00003195A2E2400211C602E0D30250022021B
:101CB0000318602E22082400A200250022080A2D05
:101CC0000D3025002206031D08002400211C0800F9
:101CD00022080319080003102000491E0314031CE6
:101CE000742E200049160800200049120800240024
:101CF000201C08000B302100C500A030A0000230DD
:101D0000A1004508A20047278C31003A031D0800B6
:101D1000CC0104304C020318A92E4C35A33E86009A
:101D2000023087004C35AB278C31C7000108C60054
:101D300003304702E930031946020318A72E4C3539
:101D4000563E860087014608C03F4708C13FCC0A7F
:101D5000892E9731792720004912C912C9150330FD
:101D6000CD0008000C302206031DB82E0130B92E1C
:101D7000003095278C310319080020004912C91240
:101D8000C911CD0108000D302206031DC92E0130F6
:101D9000CA2E003095278C31031908009E31422E3F
:101DA0008F278C310A30A20047278C31003A031D5F
:101DB00008008B13250022082000C00025002308FE
:101DC0002000C100250024082000C20025002508AD
:101DD0002000C300250026082000C4002500270895
:101DE0002000C500250028082000C6008B17DC2C29
:101DF0000F302206031DFE2E0130FF2E00309527E6
:101E00008C3103190800200049140330CB0008006E
:101E10008F278C310530A20047278C31003A031DF3
:101E200008001F3031009200FF309100943095007F
:101E300055309600AA30960095140000000031003D
:101E400095181F2F1511A0302100A1000230A2000B
:101E50000530A3009E31BF268C3102302100BF0027
:101E6000F330BE00B030890B332FBE0B332FBF0BC6
:101E7000332F000001000800210884001030040204
:101E80000318080088310435003E82000800A501CF
:101E9000A601220826020318592F2608A300A40130
:101EA000200786002408213D87000108A506A60A10
:101EB000492F250808002100A00120358B31E92396
:101EC0008C310430A00A2002031808005D2F210085
:101ED000A0012035233E86000230870020354E3E8B
:101EE0008B31B3238C310430A00A20020318080080
:101EF000692F971708001F150800470803198B2F33
:101F0000C70197314B2720004B08031DCB034B081B
:101F1000031949100800C701C70A97315E2FA03086
:101F20002100A0000230A10008002100BE0068309E
:101F3000BF013E06C0003F08C10040084104080040
:101F4000860002308700403FBE00413FBF002500B1
:101F5000230821000800A23E84000230850000080A
:101F600008004E35233E860002308700080020001E
:101F70004912C91249150330CC000800E830BE00F0
:101F80000330BF004D35080081024131031C81033D
:101F90007F310800A501A601200821040319EA2FBA
:101FA000A401A40AA11BD72FA035A10DD12FA535BF
:101FB000A60D21082302031DDF2F20082202031C87
:101FC000E62F2008A2022108A33B2514A136A00C6D
:101FD000A40BD72F2608A1002508A0000800200088
:101FE000C601C501C401C3010130C200C100C00166
:101FF00008004D08031DCD034D080319C911080041
:1020000085319E2D8531AF2D8531BE2D8531CF2D6A
:102010008531E02D8531EC2D8531F42D8531FC2D78
:102020008631062E86310B2E86311E2E8631302EBD
:1020300086313C2E86313D2E8631562E85319E2DA1
:102040008531AF2D8531BE2D8531CF2D8531E02DE8
:102050008531EC2D8531F42D8531FC2D8631062E10
:1020600086310B2E86311E2E8631302E86313C2E47
:1020700086313D2E86315C2E85319E2D8531AF2DEA
:102080008531BE2D8531CF2D8531E02D8531EC2D6B
:102090008531F42D8531FC2D8631062E86310B2EAF
:1020A00086312A2E8631302E86313C2E86313D2EC9
:1020B0008631562E85319E2D8531AF2D8531BE2D31
:1020C0008531CF2D8531E02D8531EC2D8531F42DF5
:1020D0008531FC2D8631062E86310B2E8631242E3D
:1020E0008631302E86313C2E86313D2E8631562E5D
:1020F00085319E2D8531AF2D8531BE2D8531CF2D7A
:102100008531E02D8531EC2D8531F42D8531FC2D87
:102110008631062E86310B2E8631242E8631302EC6
:1021200086313C2E86313D2E8631632E89314429FD
:10213000893151298931672989317F2989318B2951
:102140008931A0298931BD298931D5298931F829D9
:102150008A310A2A8A311D2A8A31332AFF3FEC2923
:102160000F30A00420080F396038F82190312C225C
:1021700090311A2290319A30BA009930BB003E302B
:10218000BC000330BE00E830AB290F30A0042008AB
:102190000F399038B5280F3031229031F821903125
:1021A0000130A800F430A7001A229031F12820084D
:1021B000F0390A38A0000F30A00513229031A70192
:1021C000A8010130B000F430AF002000D601D701E3
:1021D0000330DB00E830DA002300B401B5013F3002
:1021E000B600BA01BB01EA298B31DB239031FA300A
:1021F000A500A6018B31C32390318631F2269031A0
:10220000DC01DD012300B7014030B8003F30B900E8
:10221000C1282008F03908384522A701A80101305B
:10222000B000C230AF008631F2269031FA30DA00C9
:10223000DB012300BA014030BB00BC0096305F29AF
:10224000362290317038A0000130A200B830A100D1
:102250000130AA00F430A9000130A400B830A30076
:102260000130AC00F430AB000130A600B830A5005E
:102270000130AE00F4303D2290318030B200403069
:10228000B300B4018030B5004030B600B7018030F3
:10229000B8004030B9000F305E292008F039073807
:1022A000A0000F30A0052429F030A0058631F226C9
:1022B0009031DA01DB01DC01DD011E302300BD00BD
:1022C000BE01F629F030A0058631F2269031DA0100
:1022D000DB018731D72790315D293622703887316D
:1022E000C72790310130AA006830A9000130A4004E
:1022F0002C30A3000130AC006830AB000130A600E8
:102300002C30A5000130AE0068303D229031B20182
:102310004030B300B401B501B600B701B801B9004F
:102320005D29F030A0058631F2269031FA30DA00CE
:10233000DB016430DC00DD014B29F030A005863183
:10234000F2269031FA30DA00DB01DC01DD010B30DE
:102350002300BE00B830BD00F6294B229031D038A2
:10236000A0000C229031FA30A50052229031A70132
:10237000A801FA30AF00B0012000D801D901230034
:10238000B1018030B2003F30B300B7018030B800F7
:102390003E30B900BA018030BE28873151279031D4
:1023A00020080F398038A000A5015222FA30A7007A
:1023B000A8010330B000E830AF0003302000D700A0
:1023C000E830D600D801D90123008731C1279031E8
:1023D0004030BB003F30C0283F0884001130040269
:1023E0000318F62987310435DC3E820058220800A4
:1023F000A000A101A2010330AA00E830A900A301B6
:10240000A4010130AC00F430AB00A501A6010330FB
:10241000AE00E830AD000800A101A2010330AA001F
:10242000E830A9000800A301A4010130AC00F43099
:10243000AB0008000330B000E830AF00B1018030DD
:10244000B2003F30B300B401B501B600B70180302F
:10245000B8003F30B90008000230A800BC30A70027
:102460000800A00420080F39603808002008F0395F
:102470000738A00020080F390800AD00FA3020000E
:10248000DC00DD012300B1010800A00020080F39A5
:102490008038A00008002008F0390D38A00020087E
:1024A0000F390800A6010130AE00F430AD0008007D
:1024B000F20120087222903103196C2A200E722238
:1024C00090310319662A7235A13E682A7235A93EF9
:1024D0007E228B31B32390310430F20A720203184A
:1024E0000800592A0F39F0000130F100720A792AE8
:1024F000F135890B782A71087005080086000130D3
:1025000087007235563E08002000C91E8A2AF8014D
:10251000F80A8C2A0430F800F901DD229231403F9C
:10252000F400413FF5007306031D982A72087406F3
:102530000319C42ADD229231CB2292310318A72A33
:10254000E9229231810741310318810AC42A793581
:10255000563E86008701403FF200413FF300793547
:102560004E3E8600CB2292310318BB2AE9228F31DE
:10257000C4279231C42A79354E3E860087017935C9
:10258000563E8B31B32392310430F90A7902031C91
:102590008D2AEC230800403FF400413FF500780805
:1025A0007407F60075080318750AF70073087702B8
:1025B000031D080072087602080079354E3E860039
:1025C0008701403FF200413FF3007935563E8600D7
:1025D00008007935563E86008701780808002300F8
:1025E000C00A0319C10A2000BF018731CD279231EB
:1025F0008631E12692318731A42792313F083F0787
:102600003F0787315627923151238731B3279231C3
:102610008431ED2492312D08BE002C08BD00240029
:10262000211C1C2B20003F35A13E46249231390746
:10263000BB003E083A3D252B20003F35A93E4624ED
:1026400092313902BB003E083A3B3C2492310430BF
:10265000BF0A3F02031CF52A23003E084102031D66
:10266000332B3D084002031C4F2BC001C101F03049
:10267000A0052400A2012000CA0149150330CC00A6
:10268000BF013F354E3E860087013F35563E8B31B8
:10269000B32392310430BF0A3F02031C412BEC23C9
:1026A00008002008FB002108FC002208FD000310A0
:1026B0007C0D7D0DA6002608031D5F2B6A2C2308C8
:1026C000FB002408FC002508FD0003107C0D7D0D97
:1026D000AB002B08031D6D2B6A2C2B087B3EA60735
:1026E0002208AB002508AB068030AB05FF30A117F0
:1026F000A417A305A4050730A501A701A801A901F6
:10270000AA00201C852B4F249231A236A10CA00CCC
:10271000A335A40DA50DAA0B812B0930AA00201CFE
:10272000932B4F249231A236A10CA00CA936A80CF1
:10273000A70CAA0B8F2B2708F0002808F100290806
:10274000F2002608F3002B08F400AE2370082000E6
:10275000A0007108A1007208A20008007308031904
:10276000B62B720871047004031DBE2BF001F10139
:10277000F2010800F30AF236F10CF00CFE3072059B
:102780000319CC2BBA2BF30AF00A0319F10A031927
:10279000F20AF236F10CF00CFF3072050319D92B56
:1027A000C32B02307302031CDB2BF303F035F10D56
:1027B000F20DF11FD12B731CF113F3367308F700E0
:1027C000F601F5017508F0047608F1047708F204C3
:1027D0007408031DF217080020005708F10056087E
:1027E000F0000824923120005908F1005808F00048
:1027F0001524923120005B08F1005A08F0002224D1
:10280000923120005D08F1005C08F0002F240800E0
:10281000FF30F0050330F1052500131E142C06309F
:10282000F035F10D890B102C5B2CFF30F0050330D7
:10283000F1052500171E212C0630F035F10D890B0E
:102840001D2C652CFF30F0050330F1052600131E0A
:102850002E2C0630F035F10D890B2A2C602CFF3020
:10286000F0050330F1052600171E3B2C0630F0352D
:10287000F10D890B372C562CBC003F35563E860097
:1028800087013B08C03F3C08C13F0800860001307B
:102890008700403FB900413FBA003D0808002308C7
:1028A000A7072408A83D2508A93D0800710896003F
:1028B00070089500080071089200700891000800E7
:1028C0007108920070089100080071089600700865
:1028D00095000800A001A101A20108004408FE26FD
:1028E00094313D26943121082200CA00210020089D
:1028F0002200C900200045082200C9070318CA0A9F
:10290000813024004B02031CE42C01302100BE0066
:102910002000430A21008D2CBE35890B8C2C3E08EB
:1029200024004B050319E42C4C08FE2694313D2667
:10293000943121082200BD00210020082200BC00A3
:1029400024004D082200BC070318BD0A24004E08CD
:10295000FE2694313D26943121082200BF0021003B
:1029600020082200BE0024004F082200BE070318E2
:10297000BF0A3D083F02031DBF2C3C083E023D0834
:10298000031CDC2C4A02031DC72C3C084902031C13
:10299000E42C3F084A02031DCF2C3E0849020318CD
:1029A000E42C20004A0824005006031908005008AF
:1029B0002000CA0089313D294A02031DE12C3C0850
:1029C00049020318D12CC92C2000CA014608220054
:1029D000BB0024003B08FE2694313D26943121089B
:1029E0002200B100210020082200B00024003C0891
:1029F0002200B0070318B10A24003E082100BE00DF
:102A0000BF0124003D08FE2694313D269431152750
:102A10009431B200210041082200B3002400440890
:102A20002100BE00BF0124004308FE2694313D264C
:102A3000943115279431B400210041082200B500DB
:102A4000240046082100BE00BF0124004508FE26E0
:102A500094313D2694311527B6002100410822000B
:102A6000B700CC014C08203E8600013087004C089E
:102A7000473E9F31D42794314C08043E2A27943195
:102A8000083E2A2794310C3E203E86004C08473EE3
:102A90008400000881000430CC0A4C02031C322D53
:102AA000CC014C08013EC4000330C4054C35303E17
:102AB000860001308700403FC700413FC8004435D1
:102AC000303E8600403FC500413FC60048084602F0
:102AD000031D6C2D470845024808031C8A2D4A0235
:102AE000031D742D47084902031C372E46084A026D
:102AF000031D7C2D450849020318372E46083C2744
:102B00009431470849022100A000220048084A3BAE
:102B10002100B62D4A02031D8F2D470849024608A1
:102B200003189A2D4A02031D972D450849020318E0
:102B3000372E46083C279431A030B9070530BA3DFE
:102B400048084A02031DA62D4708490247080318F2
:102B5000822D49022100BE00220048084A3B210084
:102B6000BF003E08A03EA00005303F3DA1003C3024
:102B7000A201A301A400A501A601A7015226943138
:102B800023082200C300210022082200C2002100E5
:102B900021082200C100210020082200C0003B08BB
:102BA000C00701300318C1070318C2070318C30781
:102BB000CB014408B62694310130870022004C082E
:102BC000F02694310130850000080102031C0A2E12
:102BD00022004408B626943122004C08F026943195
:102BE000EA269431B6269431442794313D26943117
:102BF000052794313D269431C426943152269431D0
:102C000033279431772694312C084107C7002D08CB
:102C1000423D2F2E22004C08B62694310130870009
:102C200022004408F026943101308500EA269431D0
:102C3000B6269431442794313D26943105279431AA
:102C40003D269431C4269431522694313327943151
:102C5000772694312C084102C7002D08423B1E27DD
:102C6000943122000430CB0A4B02031CD92D0430CE
:102C7000CC0A4C02031C512D792FA401A501201C64
:102C8000452E2208A4072308A53DA235A30DA13691
:102C9000A00C20082104031D3F2E2508A1002408B4
:102CA000A0000800A801A901AA01AB01201C602E08
:102CB0002408A8072508A93D2608AA3D2708AB3DFA
:102CC000A435A50DA60DA70DA336A20CA10CA00C32
:102CD0002308220421042004031D562E2B08A300E0
:102CE0002A08A2002908A1002808A0000800B401B1
:102CF000B501B601B7012F082E042D042C040319C9
:102D0000AD2EB801B80AAF1B8A2EAC35AD0DAE0D95
:102D1000AF0D822EB435B50DB60DB70D2F083302A9
:102D2000031D9C2E2E083202031D9C2E2D083102FD
:102D3000031D9C2E2C083002031CA72E2C08B00269
:102D40002D08B13B2E08B23B2F08B33B3414AF36ED
:102D5000AE0CAD0CAC0CB80B8A2E3708AF003608A1
:102D6000AE003508AD003408AC0008002100BE00FC
:102D70002030BE35BE353E07BF0022004B08210083
:102D80003F07C000860008002008C3002108C400D7
:102D9000C501C6014608AF004508AE004408AD00B5
:102DA0004308AC00220038082100A000A101A201C4
:102DB000A301220043082100A700220042082100AD
:102DC000A600220041082100A500220040082100A1
:102DD000A4000800000801022200B8004C08080006
:102DE0002100C1002030C135C1354107C200220099
:102DF0004B0821004207C300840008002100A00006
:102E00003C30A101A200A30108002008C100210854
:102E1000C2000630A200A30122003A082100A1004E
:102E2000220039082100A00008003E082007C00049
:102E30003F08213DC100400822000800C8002200D0
:102E40004B35563E8600870121004708C03F4808A1
:102E5000C13F0800203E86004C083F3E8400000829
:102E600081004C0808002308B3002208B2002108A2
:102E7000B1002008B0000800BA004508B9004708B2
:102E8000B9024808BA3B08000108A0000A30A101B5
:102E9000A200A30108002100A001A101A0279431F4
:102EA0002100A001A101B02794312100A001A101BE
:102EB000C02794312100A001A101D02FE8302100CA
:102EC000A0000330A100A0279431E8302100A00029
:102ED0000330A100B0279431E8302100A000033076
:102EE000A100C0279431E8302100A0000330A100E8
:102EF000D02F200057082100A100200056082100F3
:102F0000A000A0279431200059082100A100200032
:102F100058082100A000B027943120005B08210050
:102F2000A10020005A082100A000C02794312000F1
:102F30005D082100A10020005C082100A000D02F26
:102F4000FF30A0050330A1052500131EAE2F06306B
:102F50002100A035A10D890BA92FF02F2100F02F02
:102F6000FF30A0050330A1052500171EBE2F063037
:102F70002100A035A10D890BB92FE02F2100E02FF2
:102F8000FF30A0050330A1052600131ECE2F06300A
:102F90002100A035A10D890BC92FE82F2100E82FB2
:102FA000FF30A0050330A1052600171EDE2F0630D6
:102FB0002100A035A10D890BD92FF82F2100F82F62
:102FC0002108250096002100200825009500080012
:102FD0002108260092002100200826009100080008
:102FE00021082500920021002008250091000800FA
:102FF00021082600960021002008260095000800E0
:10300000413454342B344134443456345F344D34D9
:10301000463452345F345334503443343D343334C3
:10302000303433343134333434343334343433346B
:1030300030343334313433343034333432340D3487
:103040000A340034413454342B344134443456343B
:103050005F344D34463452345F3453345034433447
:103060003D343F340D340A340034413454342B346D
:103070004D344F34443445343D3444344134543475
:1030800041340D340A340034413454342B34533435
:10309000453454343D3431340D340A3400348431F1
:1030A000552C8431602C8431692C8431732C84310B
:1030B0007C2C84317C2C84317C2C84317C2C84319C
:1030C0007C2C84317C2C84317C2C8531492D8531BC
:1030D0004E2D8531552D85315D2D8531632D853101
:1030E000692D85316F2D8531742D85317C2D85318C
:1030F000802D8531862D8631732E8631762E863150
:103100008C2E8631A02E8631B42EFF3FFF3FFF3F2D
:10390000FF3F640080010131890B822C0034FE00EE
:1039100012001E00FE0B882C0034413454342B342A
:103920004F344B340D340A3423001D19992C9D1C3F
:103930009B2C9D139D1721006808A03E8600023035
:1039400087002300190881002100E80A303068024E
:103950000318E80108004C08031DCC034C08031DA4
:1039600008002030860002308700AB308400003031
:10397000850031302100DD0016001A00DD0BBC2C63
:103980001030C524200049110800DC00AB30A6002F
:103990003130A7005C08CC2CA900AA0127082A0214
:1039A000031808002A082607A800860087010108D6
:1039B000A40029082A07DF249C31AA0ACE2CA500DE
:1039C000A0007030A101A1072408A200E72C00305C
:1039D0008B1B0130A3002108310092002100200838
:1039E00031009100210022083100930015171515B0
:1039F0008B1355309600AA30960095149518FE2C1E
:103A000015112100230C031C8B1303188B170800BE
:103A1000C60A3C304602031C4C2DC601C50A3C3088
:103A20004502031C4C2DC501C40A18304402031C76
:103A30004C2DC401C20AC30A073043020318C30154
:103A40004008F500D030F601F5070730F63D4E2569
:103A50009D31003A03192E2D1D302F2D1C302200D0
:103A6000E4000D302000410203184C2D41080319D9
:103A70004C2D4108623E8600013087004208010259
:103A800003184C2D0130C200C10A0D304102031C45
:103A90004C2D0130C100C00AC91408007508033953
:103AA000031900346430F000F1018A259D316A2544
:103AB0009D3170087104031D01349030F000013015
:103AC000F1008A259D316A259D3170087104031922
:103AD00001340034700871040319852DF401F40ACF
:103AE000F11B752DF035F10D6F2D71087302031D5B
:103AF0007B2D70087202031C812D7008F202710880
:103B0000F33BF136F00CF40B752D7308F1007208DD
:103B1000F00008007608F3007508F2000800AA25F6
:103B20009D31A0259D31EE259D31F8259D310C2636
:103B30009D3101269D3117269D3131269D31212E43
:103B40006030320099009B0148309D0006309F0094
:103B50009E01080022008C01D0308D008E0137308C
:103B600021008C008D0105308E0023008E018D0117
:103B70008C0124008D0106308C008E0125008C0103
:103B80008D018E0100308B1B01302100A0008B13B2
:103B90003C269D310F102408E0391238A4003D0066
:103BA0001C08E03914389C002408E0390D38A400C2
:103BB0002308E0390E38A3002608E0390F38A600A4
:103BC0002508E0390C38A5003C269D310F14210052
:103BD000201CEC2D8B1708008B1308009F3025004C
:103BE0009300920191011F08FC3901389F000800E1
:103BF0009F309700960195011F08F33904389F0004
:103C000008009F30260093009201910125001F08B3
:103C1000CF3910389F0008009F302600970096018A
:103C2000950125001F083F3940389F000800783073
:103C300020009F00F9309E009D01911021009114F9
:103C4000080091121112083023009F0090309D004F
:103C500024309E00A0309B0001309C002100911672
:103C6000080020009701D7309800FF30960095019A
:103C7000901221009016080055303C008F00AA30A9
:103C80008F0008000730A70068302600A0000D3024
:103C9000A1002100A8012708280203185C2E28088B
:103CA000223E8600033087002808403E84008501BC
:103CB00000088100A80A4B2E2030A0000330A1008C
:103CC0002708023EA2008F3147279E312600A90017
:103CD00020302100A1000330A2002708033EA300EA
:103CE000BF2E68302600A0000530A100003024005F
:103CF000201801302600A2002400201C922E16302D
:103D00002100A800A901280829020318A52E2908C6
:103D1000233E86000330870029083B3ED4279E318E
:103D2000A90A832E1A302100A800A9012808290217
:103D30000318A52E2908233E860003308700290892
:103D4000213ED4279E31A90A962E2030A0000330B0
:103D5000A1002808033EA2008F3147279E31A7000B
:103D60002808233E86000330870027088100203082
:103D7000A1000330A2002808043EA300BF2E2200A9
:103D80008E1005302100A4002630890BC52EA40B0F
:103D9000C52E00002100A303230A0319DB2E2108EE
:103DA00086002208870001088E279E312100A10A83
:103DB0000319A20ACA2E23009E1CDB2E22008E1499
:103DC000080022008E108D1268302100C500E430FA
:103DD000890BE82EC50BE82E000022008D16053059
:103DE0002100C600DF30C500BB30890BF52EC50BA6
:103DF000F52EC60BF52E003297279E31003A031D93
:103E0000112FD0302100C500C930890B052FC50BFB
:103E1000052F003200302100A1009830A2003D277C
:103E20009E31D0302100C500C930890B152FC50B3C
:103E3000152F003244302100A1009830A2003D2708
:103E40009E31D0302100C500C930890B252FC50B0C
:103E5000252F003235302100A1009830A2003D27E7
:103E60009E3168302100C500E430890B352FC50B29
:103E7000352F000022008E140800E130860000304B
:103E80008700A4308400003085000730A3001600AE
:103E90001A00A30B472FAE01AB01AC012300190898
:103EA0002100210884002208850012000319892FAF
:103EB000210884002208850000088E279E312100F9
:103EC000A10A0319A20A502F2000911E7A2F230065
:103ED0009D1C6C2F1D121D1619082100AD002E0807
:103EE000A43E8600870101082D06031D792FAE0A26
:103EF0007A2FAE018530890B7B2F00002100AB0AA1
:103F00000319AC0A03302C02E93003192B02031801
:103F1000080007302E0203180800642FA0002000BC
:103F2000111E8F2F2100200823009A000800523014
:103F3000860001308700B0308400003085001130E9
:103F40002100AF0016001A00AF0BA22F2230C401CF
:103F5000C201C301A1009830A2003D279E31DA279B
:103F60009E31031901342000911EC42F23009D1C93
:103F7000BB2F1D121D1619082100C100DA279E3122
:103F80004106031D0034C40A8530890BC52F00008B
:103F90002100C20A0319C30A03304302E93003199E
:103FA000420203180034AF2F84000230850000085D
:103FB000810008004408B03E86008701010808001F
:00000001FF
